:100000000C9436000C945E000C945E000C945E0020
:100010000C945E000C945E000C945E000C945E00E8
:100020000C945E000C945E000C945E000C945E00D8
:100030000C945E000C945E000C945E000C945E00C8
:100040000C94CB020C945E000C943B030C941503AF
:100050000C945E000C945E000C945E000C945E00A8
:100060000C945E000C945E006D03660411241FBEA8
:10007000CFEFD8E0DEBFCDBF22E0A0EDB1E001C000
:100080001D92AC37B207E1F711E0A0E0B1E0EAE879
:10009000FBE002C005900D92A03DB107D9F710E03A
:1000A000C5E3D0E004C02197FE010E948C04C43354
:1000B000D107C9F70E949A030C94B8050C9400006C
:1000C0003FB7F8948091D5019091D601A091D701C6
:1000D000B091D80126B5A89B05C02F3F19F0019615
:1000E000A11DB11D3FBFBA2FA92F982F8827820FBE
:1000F000911DA11DB11DBC01CD0142E0660F771F0E
:10010000881F991F4A95D1F708958F929F92AF92B9
:10011000BF92CF92DF92EF92FF926B017C010E941F
:1001200060004B015C01C114D104E104F104F1F061
:100130000E946000DC01CB0188199909AA09BB095A
:10014000883E9340A105B10570F321E0C21AD108A1
:10015000E108F10888EE880E83E0981EA11CB11C0E
:10016000C114D104E104F10419F7DDCFFF90EF9041
:10017000DF90CF90BF90AF909F908F900895CF92D7
:10018000DF92EF92FF920F931F93CF93DF936C0157
:100190007A018B01C0E0D0E0CE15DF0581F0D801F7
:1001A0006D918D01D601ED91FC910190F081E02DD2
:1001B000C6010995892B11F02196EECF7E01C7016A
:1001C000DF91CF911F910F91FF90EF90DF90CF9033
:1001D0000895089580E090E00895FC01538D448DCA
:1001E000252F30E0842F90E0821B930B541710F0E2
:1001F000CF96089501970895FC01918D828D9817EF
:1002000061F0828DDF01A80FB11D5D968C91928DFA
:100210009F5F9F73928F90E008958FEF9FEF0895F7
:10022000FC01918D828D981731F0828DE80FF11DC0
:10023000858D90E008958FEF9FEF0895FC01918DDB
:10024000228D892F90E0805C9F4F821B91098F73D4
:100250009927089589ED91E00E941E0121E0892BE4
:1002600009F420E0822F0895FC01848DDF01A80F9E
:10027000B11DA35ABF4F2C91848D90E001968F73CE
:100280009927848FA689B7892C93A089B1898C91ED
:10029000837080648C93938D848D981306C002883C
:1002A000F389E02D80818F7D80830895EF92FF9206
:1002B0000F931F93CF93DF93EC0181E0888F9B8D89
:1002C0008C8D981305C0E889F989808185FD26C049
:1002D000F62E0B8D10E00F5F1F4F0F731127E02ECE
:1002E0008C8DE8120CC00FB607FCFACFE889F989AB
:1002F000808185FFF5CFCE010E943401F1CF8B8D37
:10030000FE01E80FF11DE35AFF4FF0829FB7F8940A
:100310000B8FEA89FB89808180620AC09FB7F894BD
:10032000EE89FF896083E889F98980818370806420
:1003300080839FBF81E090E0DF91CF911F910F916B
:10034000FF90EF900895CF93DF93EC01888D882381
:10035000C9F0EA89FB89808185FD05C0A889B98932
:100360008C9186FD0FC00FB607FCF5CF808185FF0D
:10037000F2CFA889B9898C9185FFEDCFCE010E947B
:100380003401E7CFDF91CF91089580E090E0892B91
:1003900029F00E942A0181110C940000089508950B
:1003A00008950895DC018D919C91009739F0DC014E
:1003B000ED91FC910280F381E02D0994089500975E
:1003C00069F0FC0101900020E9F73197AF01481B6B
:1003D000590BBC0189ED91E00C94BF0080E090E0E6
:1003E0000895CF93DF930E94DF01EC0188E391E051
:1003F0000E94DF018C0F9D1FDF91CF9108958BE349
:1004000091E00C94F1010F931F93CF93DF93EC01D4
:1004100081E591E00E94F1018FB7F8940091D1013C
:100420001091D2012091D3013091D4018FBF0C8360
:100430001D832E833F83188619861A861B86DF91BB
:10044000CF911F910F91089588E691E00C94F101EE
:10045000E9EDF1E0A089B18982E08C93A485B585AE
:100460001C92A685B78580E18C93108EA489B589EE
:1004700086E08C93A289B3898C9180618C93A28948
:10048000B3898C9188608C93A289B3898C918068A0
:100490008C93A289B3898C918F7D8C938FEF9FEF82
:1004A000DC0184839583A683B7838EE791E00C9467
:1004B000F1010F931F93CF93DF938C01EB01DC01CC
:1004C0008D919C91009799F0DC01ED91FC91008455
:1004D000F185E02D0995F80180819181009739F02F
:1004E000DC01ED91FC910280F381E02D0995F8018A
:1004F000D183C0831B830A83E881F9810680F78159
:10050000E02DCE01099585E991E00E94F10189ED88
:1005100091E0DF91CF911F910F910C94A301CF93A4
:10052000DF93EC0189EA91E00E94F10184E090E020
:100530000E949204FC01138212822AE131E031838D
:100540002083BC018A819B81DF91CF910C94590259
:10055000CF93DF93EC018CE090E00E949204FC01C9
:1005600013821282148215821682178210861186D7
:10057000128613868AE091E091838083BF018A818D
:100580009B81DF91CF910C9459020E94B3050C948A
:100590002A050C942A051F920F920FB60F92112470
:1005A0002F933F938F939F93AF93BF938091D101EC
:1005B0009091D201A091D301B091D4013091D0019A
:1005C00023E0230F2D3720F40196A11DB11D05C096
:1005D00026E8230F0296A11DB11D2093D001809320
:1005E000D1019093D201A093D301B093D401809113
:1005F000D5019091D601A091D701B091D801019673
:10060000A11DB11D8093D5019093D601A093D70170
:10061000B093D801BF91AF919F918F913F912F914E
:100620000F900FBE0F901F9018951F920F920FB64C
:100630000F9211242F933F934F935F936F937F9368
:100640008F939F93AF93BF93EF93FF9389ED91E0C7
:100650000E943401FF91EF91BF91AF919F918F91D3
:100660007F916F915F914F913F912F910F900FBEAE
:100670000F901F9018951F920F920FB60F92112492
:100680002F938F939F93EF93FF93E091E901F09164
:10069000EA018081E091EF01F091F00182FD12C04A
:1006A00090818091F2018F5F8F732091F301821707
:1006B00051F0E091F201F0E0E752FE4F958F809308
:1006C000F20101C08081FF91EF919F918F912F9155
:1006D0000F900FBE0F901F901895E9EDF1E0138277
:1006E000128288EE93E0A0E0B0E084839583A68335
:1006F000B7838AE291E09183808385EC90E09587CF
:10070000848784EC90E09787868780EC90E0918BDB
:10071000808B81EC90E0938B828B82EC90E0958BC8
:10072000848B86EC90E0978B868B118E128E138EC5
:10073000148E0895CF93DF93CDB7DEB7A1970FB690
:10074000F894DEBF0FBECDBF789484B5826084BDBF
:1007500084B5816084BD85B5826085BD85B58160C5
:1007600085BD80916E00816080936E001092810043
:1007700080918100826080938100809181008160FE
:1007800080938100809180008160809380008091BF
:10079000B10084608093B1008091B000816080934B
:1007A000B00080917A00846080937A0080917A0012
:1007B000826080937A0080917A00816080937A00D1
:1007C00080917A00806880937A001092C10084E062
:1007D00090E00E949204DC0113961C921E921297E4
:1007E0002AE131E02D933C931A821982BC01CE019B
:1007F00001960E94590289819A8190937702809391
:100800007602CE0101960E94D2018AE0882E912CB8
:10081000A12CB12C80EC91E00E94DF0168EE73E026
:1008200080E090E00E9485008FB7F8942091D1017C
:100830003091D2014091D3015091D4018FBF19A2C0
:100840008E010F5D1F4FCA01B901A50194010E94DD
:100850006A04605DF80162938F012115310541053D
:10086000510589F7CF010E94DF0104E110E089ED15
:1008700091E00E94A30189ED91E00E941E01892B65
:1008800091F464E670E080E090E00E948500809141
:10089000760290917702DC01ED91FC910480F58164
:1008A000E02D0995E4CF89ED91E00E94FC00F82E3F
:1008B000682F89ED91E00E945601BAE0FB1619F00D
:1008C00001501109A1F60E94C501A4CF86E792E06C
:1008D0000C94D201A1E21A2EAA1BBB1BFD010DC074
:1008E000AA1FBB1FEE1FFF1FA217B307E407F507E0
:1008F00020F0A21BB30BE40BF50B661F771F881FBC
:10090000991F1A9469F760957095809590959B0151
:10091000AC01BD01CF010895EE0FFF1F0590F491CA
:10092000E02D09940F931F93CF93DF9382309105AD
:1009300010F482E090E0E0917A02F0917B0220E0F6
:1009400030E0A0E0B0E0309719F1408151810281A0
:10095000138148175907C8F08417950769F4109751
:1009600031F012960C93129713961C9327C00093A4
:100970007A0210937B0222C02115310519F042172B
:10098000530718F49A01BD01EF01DF01F801DBCF35
:1009900021153105F9F0281B390B2430310580F47D
:1009A0008A819B816115710521F0FB01938382830C
:1009B00004C090937B0280937A02FE01329644C079
:1009C000FE01E20FF31F8193919322503109398385
:1009D00028833AC02091780230917902232B41F488
:1009E0002091020130910301309379022093780223
:1009F00020910001309101012115310541F42DB7FD
:100A00003EB74091040150910501241B350BE09144
:100A10007802F0917902E217F307A0F42E1B3F0B46
:100A20002817390778F0AC014E5F5F4F2417350760
:100A300048F04E0F5F1F50937902409378028193E4
:100A4000919302C0E0E0F0E0CF01DF91CF911F91E0
:100A50000F910895CF93DF93009709F481C0FC01B3
:100A6000329713821282A0917A02B0917B02109782
:100A700081F420813181820F931F2091780230917F
:100A800079022817390751F5F0937902E09378023B
:100A900067C0ED0120E030E0CE17DF0740F44A8167
:100AA0005B819E0141155105F1F0EA01F5CFD38339
:100AB000C28340815181840F951FC817D90759F40B
:100AC00088819981840F951F0296918380838A8102
:100AD0009B81938382832115310529F4F0937B0256
:100AE000E0937A023DC0E901FB83EA834991599181
:100AF000C40FD51FEC17FD0761F480819181840F2D
:100B0000951F0296E90199838883828193819B8353
:100B10008A83E0E0F0E012968D919C911397009704
:100B200019F0FD01DC01F7CF8D919C9111979D018A
:100B30002E5F3F4F820F931F2091780230917902F0
:100B40002817390769F4309729F410927B02109224
:100B50007A0202C013821282B0937902A0937802C3
:100B6000DF91CF91089581E090E0F8940C94B8055E
:100B700010E0C5E3D0E004C0FE010E948C04219681
:0A0B8000C633D107C9F7F894FFCF80
:100B8A0000007C02200000000000D001C902D1014F
:100B9A000302FF018F0200000000CF01C702A80272
:100BAA0028022402E900000000005601BF00ED00FF
:100BBA00A3011E01FC0010010D0A005072654F705E
:100BCA0065726174696F6E616C202F206578697433
:100BDA00005072654F7065726174696F6E616C2046
:100BEA002F20656E74727900496E697469616C6947
:100BFA007A6174696F6E202F206578697400496E76
:100C0A00697469616C697A6174696F6E202F2065F5
:100C1A006E74727900436F6E746578743A205472F8
:100C2A00616E736974696F6E005072654F70657298
:100C3A006174696F6E616C202F2072657365740030
:100C4A00456E74657220636F6D6D616E643A200043
:00000001FF
