:100000000C9436000C945E000C945E000C945E0020
:100010000C945E000C945E000C945E000C945E00E8
:100020000C945E000C945E000C945E000C945E00D8
:100030000C945E000C945E000C945E000C945E00C8
:100040000C94C4020C945E000C9434030C940E03C4
:100050000C945E000C945E000C945E000C945E00A8
:100060000C945E000C945E0066034C0411241FBEC9
:10007000CFEFD8E0DEBFCDBF22E0A2ECB1E001C0FF
:100080001D92AE36B207E1F711E0A0E0B1E0E6E57F
:10009000FBE002C005900D92A23CB107D9F710E039
:1000A000C5E3D0E004C02197FE010E947204C4336E
:1000B000D107C9F70E9493030C949E050C9400008D
:1000C0003FB7F8948091C7019091C801A091C901F0
:1000D000B091CA0126B5A89B05C02F3F19F0019623
:1000E000A11DB11D3FBFBA2FA92F982F8827820FBE
:1000F000911DA11DB11DBC01CD0142E0660F771F0E
:10010000881F991F4A95D1F708958F929F92AF92B9
:10011000BF92CF92DF92EF92FF920E9460004B015C
:100120005C0184E6C82ED12CE12CF12C0E946000E9
:10013000DC01CB0188199909AA09BB09883E9340C3
:10014000A105B10598F321E0C21AD108E108F10830
:1001500088EE880E83E0981EA11CB11CC114D10446
:10016000E104F10419F7FF90EF90DF90CF90BF907A
:10017000AF909F908F900895CF92DF92EF92FF9271
:100180000F931F93CF93DF936C017A018B01C0E033
:10019000D0E0CE15DF0581F0D8016D918D01D6013B
:1001A000ED91FC910190F081E02DC6010995892B1C
:1001B00011F02196EECF7E01C701DF91CF911F9103
:1001C0000F91FF90EF90DF90CF900895089580E019
:1001D00090E00895FC01538D448D252F30E0842F4D
:1001E00090E0821B930B541710F0CF96089501975F
:1001F0000895FC01918D828D981761F0828DDF0149
:10020000A80FB11D5D968C91928D9F5F9F73928F09
:1002100090E008958FEF9FEF0895FC01918D828DFE
:10022000981731F0828DE80FF11D858D90E00895CB
:100230008FEF9FEF0895FC01918D228D892F90E023
:10024000805C9F4F821B91098F73992708958BECD7
:1002500091E00E941B0121E0892B09F420E0822F0C
:100260000895FC01848DDF01A80FB11DA35ABF4F73
:100270002C91848D90E001968F739927848FA689A5
:10028000B7892C93A089B1898C91837080648C93F9
:10029000938D848D981306C00288F389E02D8081A8
:1002A0008F7D80830895EF92FF920F931F93CF93DA
:1002B000DF93EC0181E0888F9B8D8C8D981305C0B6
:1002C000E889F989808185FD26C0F62E0B8D10E026
:1002D0000F5F1F4F0F731127E02E8C8DE8120CC09B
:1002E0000FB607FCFACFE889F989808185FFF5CF41
:1002F000CE010E943101F1CF8B8DFE01E80FF11D7F
:10030000E35AFF4FF0829FB7F8940B8FEA89FB897D
:10031000808180620AC09FB7F894EE89FF8960836C
:10032000E889F98980818370806480839FBF81E040
:1003300090E0DF91CF911F910F91FF90EF90089582
:10034000CF93DF93EC01888D8823C9F0EA89FB897C
:10035000808185FD05C0A889B9898C9186FD0FC073
:100360000FB607FCF5CF808185FFF2CFA889B98948
:100370008C9185FFEDCFCE010E943101E7CFDF9157
:10038000CF91089580E090E0892B29F00E94270109
:1003900081110C9400000895089508950895DC01DA
:1003A0008D919C91009739F0DC01ED91FC910280D8
:1003B000F381E02D09940895009769F0FC01019004
:1003C0000020E9F73197AF01481B590BBC018BECBA
:1003D00091E00C94BC0080E090E00895CF93DF930F
:1003E0000E94DC01EC0188E391E00E94DC018C0FAB
:1003F0009D1FDF91CF9108958BE391E00C94EE0166
:100400000F931F93CF93DF93EC0181E591E00E945E
:10041000EE018FB7F8940091C3011091C4012091AF
:10042000C5013091C6018FBF0C831D832E833F838E
:10043000188619861A861B86DF91CF911F910F911E
:10044000089588E691E00C94EE01EBECF1E0A089D0
:10045000B18982E08C93A485B5851C92A685B78569
:100460008FEC8C93108EA489B58986E08C93A28939
:10047000B3898C9180618C93A289B3898C918860B7
:100480008C93A289B3898C9180688C93A289B3895B
:100490008C918F7D8C938FEF9FEFDC01848395830C
:1004A000A683B7838EE791E00C94EE010F931F9320
:1004B000CF93DF938C01EB01DC018D919C91009730
:1004C00099F0DC01ED91FC910084F185E02D099516
:1004D000F80180819181009739F0DC01ED91FC9168
:1004E0000280F381E02D0995F801D183C0831B833D
:1004F0000A83E881F9810680F781E02DCE01099514
:1005000085E991E0DF91CF911F910F910C94EE015D
:10051000CF93DF93EC0189EA91E00E94EE0184E041
:1005200090E00E947804FC01138212822AE131E0FB
:1005300031832083BC018A819B81DF91CF910C9410
:100540005602CF93DF93EC018CE090E00E94780498
:10055000FC01138212821482158216821782108681
:100560001186128613868AE091E091838083BF0111
:100570008A819B81DF91CF910C9456020E9499054C
:100580000C9410050C9410051F920F920FB60F9249
:1005900011242F933F938F939F93AF93BF93809199
:1005A000C3019091C401A091C501B091C6013091E1
:1005B000C20123E0230F2D3720F40196A11DB11DA8
:1005C00005C026E8230F0296A11DB11D2093C2018C
:1005D0008093C3019093C401A093C501B093C60159
:1005E0008091C7019091C801A091C901B091CA0141
:1005F0000196A11DB11D8093C7019093C801A093DE
:10060000C901B093CA01BF91AF919F918F913F9162
:100610002F910F900FBE0F901F9018951F920F9261
:100620000FB60F9211242F933F934F935F936F93C5
:100630007F938F939F93AF93BF93EF93FF938BEC35
:1006400091E00E943101FF91EF91BF91AF919F9195
:100650008F917F916F915F914F913F912F910F906B
:100660000FBE0F901F9018951F920F920FB60F920A
:1006700011242F938F939F93EF93FF93E091DB01CE
:10068000F091DC018081E091E101F091E20182FDD5
:1006900012C090818091E4018F5F8F732091E501FA
:1006A000821751F0E091E401F0E0E553FE4F958FA1
:1006B0008093E40101C08081FF91EF919F918F9120
:1006C0002F910F900FBE0F901F901895EBECF1E05B
:1006D0001382128288EE93E0A0E0B0E084839583D9
:1006E000A683B7838AE291E09183808385EC90E0D2
:1006F0009587848784EC90E09787868780EC90E0EC
:10070000918B808B81EC90E0938B828B82EC90E0DC
:10071000958B848B86EC90E0978B868B118E128E56
:10072000138E148E0895CF93DF93CDB7DEB7A197C4
:100730000FB6F894DEBF0FBECDBF789484B582604B
:1007400084BD84B5816084BD85B5826085BD85B575
:10075000816085BD80916E00816080936E001092F3
:10076000810080918100826080938100809181006E
:1007700081608093810080918000816080938000FF
:100780008091B10084608093B1008091B00081605D
:100790008093B00080917A00846080937A00809189
:1007A0007A00826080937A0080917A0081608093E1
:1007B0007A0080917A00806880937A001092C1005C
:1007C00084E090E00E947804DC0113961C921E9253
:1007D00012972AE131E02D933C931A821982BC01D1
:1007E000CE0101960E94560289819A8190936902F6
:1007F00080936802CE0101960E94CF018FB7F894D2
:100800002091C3013091C4014091C5015091C601AE
:100810008FBF19A28E010F5D1F4F8AE0C82ED12C09
:10082000E12CF12CCA01B901A70196010E945004E4
:10083000605DF80162938F01211531054105510575
:1008400089F7CF010E94DC0188E391E00E94DC017E
:100850000E9485008BEC91E00E94A00180916802CB
:1008600090916902DC01ED91FC910480F581E02D0D
:1008700009950E9485008BEC91E00E941B01892B59
:1008800021F08BEC91E00E94F90080EC91E00E9455
:10089000EE010E94C201EDCF88E692E00C94CF01F8
:1008A000A1E21A2EAA1BBB1BFD010DC0AA1FBB1F74
:1008B000EE1FFF1FA217B307E407F50720F0A21BE6
:1008C000B30BE40BF50B661F771F881F991F1A9453
:1008D00069F760957095809590959B01AC01BD017D
:1008E000CF010895EE0FFF1F0590F491E02D0994BC
:1008F0000F931F93CF93DF938230910510F482E022
:1009000090E0E0916C02F0916D0220E030E0A0E018
:10091000B0E0309719F1408151810281138148176D
:100920005907C8F08417950769F4109731F01296AB
:100930000C93129713961C9327C000936C0210938C
:100940006D0222C02115310519F04217530718F422
:100950009A01BD01EF01DF01F801DBCF211531055F
:10096000F9F0281B390B2430310580F48A819B81F2
:100970006115710521F0FB019383828304C090937C
:100980006D0280936C02FE01329644C0FE01E20FBC
:10099000F31F8193919322503109398328833AC000
:1009A00020916A0230916B02232B41F420910201C5
:1009B0003091030130936B0220936A022091000171
:1009C000309101012115310541F42DB73EB7409119
:1009D000040150910501241B350BE0916A02F0914E
:1009E0006B02E217F307A0F42E1B3F0B2817390701
:1009F00078F0AC014E5F5F4F2417350748F04E0F7B
:100A00005F1F50936B0240936A028193919302C0DF
:100A1000E0E0F0E0CF01DF91CF911F910F910895B9
:100A2000CF93DF93009709F481C0FC0132971382C2
:100A30001282A0916C02B0916D02109781F4208116
:100A40003181820F931F20916A0230916B02281727
:100A5000390751F5F0936B02E0936A0267C0ED012C
:100A600020E030E0CE17DF0740F44A815B819E0131
:100A700041155105F1F0EA01F5CFD383C2834081DE
:100A80005181840F951FC817D90759F4888199811E
:100A9000840F951F0296918380838A819B81938323
:100AA00082832115310529F4F0936D02E0936C02E5
:100AB0003DC0E901FB83EA8349915991C40FD51FD9
:100AC000EC17FD0761F480819181840F951F0296D8
:100AD000E90199838883828193819B838A83E0E003
:100AE000F0E012968D919C911397009719F0FD01FB
:100AF000DC01F7CF8D919C9111979D012E5F3F4FA7
:100B0000820F931F20916A0230916B0228173907D8
:100B100069F4309729F410926D0210926C0202C0B1
:100B200013821282B0936B02A0936A02DF91CF917D
:100B3000089581E090E0F8940C949E0510E0C5E3E0
:100B4000D0E004C0FE010E9472042196C633D10792
:060B5000C9F7F894FFCF85
:100B560000006E02200000000000CD01C002CE01A0
:100B66000002FC01880200000000CC01C202A102C2
:100B760025022102E600000000005301BC00EA0045
:100B8600A0011B01F9000D010D0A005072654F709E
:100B960065726174696F6E616C202F206578697467
:100BA600005072654F7065726174696F6E616C207A
:100BB6002F20656E74727900496E697469616C697B
:100BC6007A6174696F6E202F206578697400496EAA
:100BD600697469616C697A6174696F6E202F20652A
:100BE6006E74727900436F6E746578743A2054722D
:100BF600616E736974696F6E005072654F706572CD
:100C06006174696F6E616C202F2072657365740064
:020C160072006A
:00000001FF
